S018000046696E616C5F576174657243726F776E2E73726563B7
S3150000000030830020DD170000C5160000D917000058
S31500000010D9170000D9170000D9170000D91700001A
S31500000020000000000000000000000000D9170000DA
S31500000030D917000000000000D9170000D9170000EA
S3150000004091140000911400001D1100001D11000004
S315000000501D1100001D1100001D1100000000000010
S31500000060000000000000000000000000000000008A
S31500000070000000000000000000000000000000007A
S31500000080000000000000000000000000000000006A
S31500000090000000000000000000000000000000005A
S31500000400FFFFFFFFFFFDFFFFFCFFFFFFFFFFFFFFFB
S31500000410FCFFFFFFFFFFFFFFFCFFFF00FFFFFF00EA
S31500000420FCFF0F20FFFF0F20FCFF7F40FFFF7F40F8
S31500000430FCFF0D40FFFF0D40FFFFFFFFFFFFFFFF2B
S31500000440FFFFFFFFFFFFFFFFFFFFFFFFFFFFFFFFB6
S31500000450FFFFFFFFFFFFFFFFFFFFFFFFFFFFFFFFA6
S31500000460FFFFFFFFFFFFFFFFFFFFFFFFFFFFFFFF96
S31500000470FFFFFFFFFFFFFFFFFFFFFFFFFFFFFFFF86
S31500000480FFFFFFFFFFFFFFFFFFFFFFFFFFFFFFFF76
S31500000490FFFFFFFFFFFFFFFFFFFFFFFFFFFFFFFF66
S315000004A0FFFFFFFFFFFFFFFFFFFFFFFFFFFFFFFF56
S315000004B0FFFFFFFFFFFFFFFFFFFFFFFFFFFFFFFF46
S315000004C0FFFFFFFFFFFFFFFFFFFFFFFFFFFFFFFF36
S315000004D0FFFFFFFFFFFFFFFFFFFFFFFFFFFFFFFF26
S315000004E0FFFFFFFFFFFFFFFFFFFFFFFFFFFFFFFF16
S315000004F0FFFFFFFFFFFFFFFFFFFFFFFFFFFFFFFF06
S3150000050010B5054C237833B9044B13B10448AFF347
S3150000051000800123237010BD707C002000000000C5
S31500000520D41F000008B5034B1BB103490348AFF3C2
S31500000530008008BD00000000747C0020D41F00006D
S31500000540034B1B681BB1034A1368013313607047E2
S31500000550987C0020A07C0020024A536883F00103A7
S31500000560536070470000FE1F4368083B052B0BD8FD
S31500000570DFE803F003170A22280B204B1A781AB972
S315000005801F4A1268002A2FD170471C4B1B78002B7C
S31500000590FAD11C4A1C4913688B4222DA1B4B1360A2
S315000005A070471B4B1A68002AEED01A491A4A096886
S315000005B01160012058607047114A136883F00103E7
S315000005C0136070470D4B1B78002BDDD10D4A136865
S315000005D040F2E6318B42CCBF40F2E7330133136081
S315000005E07047013B1360CFE709490C4801220A60B6
S315000005F040F609211A7000F0A7BB00BF907C0020CE
S31500000600947C0020A47C00201AFCFFFF19FCFFFF4D
S31500000610A87C0020A07C0020B07C0020B47C0020B8
S315000006202DE9F043194BDFF86C90194F0FCB85B0CD
S315000006306E4686E80F0000254FF0100856F8043B7A
S31500000640013519F8034008FA05F24FF4F07392B237
S315000006504FF44071384600F069FBE2431001D201C5
S31500000660C0B202F4F04202434FF4C06147F6F00311
S31500000670384600F05BFB4FF47A71022000F0F4FF7D
S31500000680042DDBD105B0BDE8F08300BF041D0000DA
S31500000690B47C0020141D00002DE9F04385B0002233
S315000006A00028009279DB092830DC0B23CDE90133E1
S315000006B0CE4EDFF84C930390144601AF15464FF02B
S315000006C01008013508FA05F292B24FF4F0734FF4B0
S315000006D04071304600F02AFBE2431301D201DBB23F
S315000006E002F4F0421A434FF4C06147F6F003304675
S315000006F000F01CFB4FF47A71022000F0B5FF042DC8
S3150000070042D057F8043B19F80340DAE7632800F3B0
S31500000710CA80B749B54EDFF8E89281FB0041C3179E
S31500000720C3EBA10303EB83010B25A0EB410001956D
S3150000073002931446039001AF15464FF01008013599
S3150000074008FA05F292B24FF4F0734FF44071304656
S3150000075000F0ECFAE2431301D201DBB202F4F042FC
S315000007601A434FF4C06147F6F003304600F0DEFA54
S315000007704FF47A71022000F077FF042D04D057F869
S31500000780043B19F80340DAE79848002240F20931A1
S3150000079005B0BDE8F04300F0D7BA10F1090FC0F17B
S315000007A0000139DB934B914EDFF85492A3FB010312
S315000007B0DB0803EB83030A20A1EB4303CDE9020325
S315000007C00B250195144601AF15464FF0100801356B
S315000007D008FA05F292B24FF4F0734FF440713046C6
S315000007E000F0A4FAE2431301D201DBB202F4F042B4
S315000007F01A434FF4C06147F6F003304600F096FA0C
S315000008004FF47A71022000F02FFF042DBCD057F868
S31500000810043B19F80340DAE76330C0F29780764864
S31500000820744C724EDFF8D891A0FB01304009642366
S3150000083003FB1010A4FB0153DB08A4FB004003EBF1
S3150000084083030A25A1EB4303C008019502901446D1
S31500000850039301AF15464FF01008013508FA05F26B
S3150000086092B24FF4F0734FF44071304600F05EFAE6
S31500000870E2431301D201DBB202F4F0421A434FF411
S31500000880C06147F6F003304600F050FA4FF47A7133
S31500000890022000F0E9FE042D3FF476AF57F8043B42
S315000008A019F80340D9E7554B504DDFF85481C4176A
S315000008B083FB0013C4EBA3134FF47A7101FB1303FC
S315000008C04D499146A1FB03235B090193484B83FBEA
S315000008D00023C4EBA30303EB830381FB0021A0EBFE
S315000008E04303C4EB611103936422424B02FB1100E4
S315000008F0A3FB0030C00801AE4C460290102701341D
S3150000090007FA04F292B24FF4F0734FF4407128469E
S3150000091000F00CFA6FEA09021301D201DBB202F40D
S31500000920F0421A434FF4C06147F6F003284600F040
S31500000930FDF94FF47A71022000F096FE042C3FF484
S3150000094023AF56F8043B18F80390D8E72B4B2A4CF4
S315000009502B4FA3FB01534FF47A709B0900FB131333
S31500000960A4FB0150A4FB03435B09224C01934009FD
S31500000970642303FB1010A4FB0153DB08A4FB004017
S3150000098003EB8303C008A1EB4303CDE90203174D34
S3150000099001AE4FF0400914464FF01008013408FA32
S315000009A004F292B24FF4F0734FF44071284600F00F
S315000009B0BDF96FEA09021301D201DBB202F4F0427B
S315000009C01A434FF4C06147F6F003284600F0AEF92B
S315000009D04FF47A71022000F047FE042C3FF4D4AEA7
S315000009E056F8043B17F80390D8E700BFB47C002004
S315000009F067666666CDCCCCCC1F85EB51D34D6210B5
S31500000A00141D0000FFFFFFFF2DE9F84F92499348A0
S31500000A10DFF8B0A2924EDFF8B0B2924F924C934DEF
S31500000A2000F0AAFC8D4800F099FC9149914800F02D
S31500000A30A3FC904800F092FC8F49904800F0A4FB7C
S31500000A408F49904800F00AFB8E4800F047FB8E491C
S31500000A508E4800F003FB8D4800F040FB8C498D4822
S31500000A6000F0FCFA8B4800F039FB8B498B4800F00C
S31500000A70F5FA8A4800F032FB89498A4800F0EEFA16
S31500000A80884800F02BFB884A784800231360874A81
S31500000A90CAF800301360864A1360864A1360864A95
S31500000AA040F609211360012200F04EF93378032B3A
S31500000AB0FDD8DFE803F069601B024FF47A7108463F
S31500000AC000F0D2FD012240F60511284600F03CF95F
S31500000AD04FF47A714FF4FA7000F0C6FD002240F62A
S31500000AE00511284600F030F93378E0E7012240F698
S31500000AF00511284600F028F94FF47A714FF49670E4
S31500000B0000F0B2FD002240F60511284600F01CF95F
S31500000B10012240F60A21284600F016F901224FF478
S31500000B203061284600F010F95F4A5448DFF89C818E
S31500000B30DFF84891002313605D4ACAF8003013605D
S31500000B405C4A3370C7E90033136000F09BFB98F8EA
S31500000B50011018F8023B484643EA012100F072FBF7
S31500000B600121162000F080FD4445F0D1434800F0F5
S31500000B706FFB33789BE7FFF753FD3B68002B52D1A1
S31500000B807B6813BB337892E7DBF80430012B0CBF8C
S31500000B900022012240F60921284600F0D5F8DAF8AD
S31500000BA000305BB9012240F60821284600F0CCF857
S31500000BB03E4B1868FFF770FD337878E7002240F661
S31500000BC00821284600F0C0F8F2E700224FF4306111
S31500000BD0284600F0B9F8374B1B6873BB37490868DD
S31500000BE000F0B4FF1AA3D3E9002300F063FE8946A0
S31500000BF02E498046086800EB8000400000F0A6FF02
S31500000C0002460B464046494600F054FE2C4B002255
S31500000C1000F04EFE01F004F82749264A0860012339
S31500000C201360337843E7002240F60A21284600F095
S31500000C308BF81D4A01231360A2E71D4B1A681E4B51
S31500000C401B689A429EDB0223337030E7AFF30080C5
S31500000C50F00CB8080A01DE3F9C1D00001C7D002038
S31500000C60907C0020A87C0020507C0020B47C0020D2
S31500000C70C41D0000387D00202C1D0000BC7C002017
S31500000C80741D0000FC7C0020881D00000C7D0020E7
S31500000C90381D0000CC7C00204C1D0000DC7C0020B0
S31500000CA0601D0000EC7C0020987C0020A47C0020C5
S31500000CB0A07C00209C7C00208C7C0020B07C002046
S31500000CC000408F40947C00200000FE1F1000FE1F95
S31500000CD0022800D07047024B0248596800F058B904
S31500000CE0201D0000B47C002008B5FFF78DFE002013
S31500000CF008BD00BF00230360184670470B0A1B019E
S31500000D00044853FA81F150F82130C3F34003002020
S31500000D101370704700080440090A490101F1804137
S31500000D2001F5802100204B6813807047090A4901AC
S31500000D3001F1804123EA020001F580211A4042EACE
S31500000D4000428A6000207047C8B2012383404AB936
S31500000D501A040B0A5B0103F1804303F5802300208C
S31500000D609A6070479AB2F4E7090A490101F1804195
S31500000D7001F5802110B40C6802EA0300204362EA00
S31500000D80030202405DF8044B0A600020704700BF72
S31500000D90090A490101F1804101F5802100204B68D3
S31500000DA0C3F30F431380704710B40B0A5B0103F1C2
S31500000DB0804303F58023C8B25C68012181408BB271
S31500000DC001EA1441C91AB1FA81F1490900205DF816
S31500000DD0044B1170704700BF090A490101F18041B7
S31500000DE023EA020001F580211A4042EA0042CA6065
S31500000DF000207047014B00201A707047000D044018
S31500000E000B0A5B0103F18043012A03F580230AD014
S31500000E10D868C9B24FF480328A400243120C1204D9
S31500000E20DA6000207047C8B2D96882400A4392B29D
S31500000E30DA600020704700BF38B50488002C4DD01A
S31500000E4043680021043303EBC40040F202450C461C
S31500000E5040F2034C40F2044E0FE0624530D153F8A5
S31500000E60042C02F0B852B2F1807F14BF41F00201A7
S31500000E7044F002040833834211D01A88AA42ECD106
S31500000E8053F8042C02F0B852B2F1807F03F1080344
S31500000E9014BF41F0010144F001048342EDD1C9437E
S31500000EA0CDB2012000F06EFC0D4B93F8BB24144329
S31500000EB02C4083F8BB440120BDE8384000F032BC2A
S31500000EC07245D7D153F8042C02F0B852B2F1807FA4
S31500000ED00CBF44F0040441F00401CBE7FF25E0E732
S31500000EE000E00140F8B50446FFF7A6FFEFF31082D5
S31500000EF0012383F31088234E33681BB92249CB7034
S31500000F004023CB7033680133336082F31088258821
S31500000F102DB362681D4C013DADB202F1080101EB33
S31500000F20C50500E008311068928810F4803F4FEA4A
S31500000F3012235FFA82FC0CEB031E09D054F82E70C4
S31500000F4020F480326FF3104744F82E7044F82E20B8
S31500000F501B0163448D4244F823000A46E2D1EFF3B5
S31500000F601082012383F31088336813B13368013B81
S31500000F70336033681BB904498020CB70C87082F394
S31500000F801088F8BD9C7D0020000D04400008044038
S31500000F9008B50346034A1A600846FFF7A3FF002078
S31500000FA008BD00BF54524F5008B50846FFF79AFFD8
S31500000FB0002008BD70B584B002AB012668460C4619
S31500000FC01546ADF80C100292ADF800600193FFF7DC
S31500000FD033FFEFF3108286F310881D490B681BB9A7
S31500000FE01C48C3704023C3700B6801330B6082F347
S31500000FF01088EA034FEA1423E4B219D41B01164AF7
S31500001000234442F82350EFF31082012383F3108820
S315000010100B6813B10B68013B0B600B681BB90D49DC
S315000010208020CB70C87082F31088002004B070BD99
S3150000103004EB0310084A52F820606FF3104642F89A
S31500001040206025F4803642F820601B01D7E700BFF8
S315000010509C7D0020000D044000080440F0B591F985
S3150000106002C080F804C04FEA8C03D1E9026403F1A0
S31500001070804303F5C0430022D3F80053C3F800238E
S31500001080C0E90264124C91F800E080F805E004F82B
S315000010900E200F79CA784E7942EA071242EAC61242
S315000010A0D2B2BCF1000F04F80E20C3F800530BDBDC
S315000010B04B7808490CF160421B0102F56142DBB234
S315000010C082F8003341F82C00034B03600020F0BD8A
S315000010D000600040A07D00205543490010B490F9FF
S315000010E004200D4B02F1C000012153F820406FF39C
S315000010F0104443F8204053099B0003F1604303F575
S31500001100614302F01F0201FA02F2C3F880210020B7
S315000011105DF8044B1A6070470060004010B582B05D
S31500001120EFF30384103C164B164964B253F824209F
S3150000113050790B5C03F00303032B0FD0C03451F836
S3150000114024306FF3104341F82430936823B1D268FA
S31500001150CDE900206846984702B010BD936823B1D8
S31500001160D268CDE9002068469847064BC03453F84C
S3150000117024206FF3104243F8242002B010BD00BFB4
S31500001180A07D0020006000402B4B10B4C3600B789C
S3150000119003F001034370EFF3108C012484F31088ED
S315000011A0264BD3F8082122F48012C3F80821D3F87D
S315000011B008318CF31088EFF3108C84F31088427892
S315000011C0002A33D1C468237962F3861323718CF322
S315000011D010884A68C468D378DB01DBB26371A379EF
S315000011E0D3B94B78C3B1EFF3108C012383F3108886
S315000011F0124BD3F8084124F40044C3F80841D3F84D
S3150000120008318CF31088C36803F580544FF0020C44
S3150000121084F8C0C080249C71537803720A780270E7
S31500001220074B43605DF8044B00207047C268137992
S315000012306FF3C7131371CAE700E00540006F04405F
S3150000124000434144C3684278002023F812107047D7
S31500001250EFF31081012383F31088427842B9C06806
S31500001260037962F38613037181F3108800207047B7
S31500001270C26813796FF3C713137181F310880020C6
S31500001280704700BF38B5037A0446002B3AD0C368CE
S31500001290427833F81250002123F81210ADB2EFF362
S315000012A0108C012383F31088E36840781A790028AC
S315000012B03DD061F3C7121A711A7F42F080021A7785
S315000012C01A7A42F080021A721A7942F080021A7172
S315000012D08CF310880121042000F0C6F9EFF3108189
S315000012E0012383F3108862788ABBE068037F62F388
S315000012F08613037781F31088E3686278002023F869
S31500001300125038BDEFF31083012282F31088427821
S31500001310C1683AB10A7942F080020A7183F31088F3
S31500001320002038BD0A7942F040020A71F6E760F300
S3150000133086121A711A7F42F040021A771A7A42F020
S3150000134040021A721A7942F040021A71C0E7E26846
S31500001350137F6FF3C7131377CCE700BF8268117A48
S3150000136001F00101137AC3F340039942FAD1F12344
S3150000137013720020704700BFF0B40B7C03F14013DA
S3150000138003F500631B02C0E90113EFF31085012387
S3150000139083F310880C7C394AC4F10304A340D2F8C5
S315000013A0084124EA0303C2F80831D2F8083185F36C
S315000013B01088826800231372137AC3F3400C9B07CC
S315000013C0FAD4CC6982F80AC0E37826780D7A2479B3
S315000013D003F00703002E42D1002D47D114734C6849
S315000013E04768002696735372631E95729BB2C4605B
S315000013F03D7C1380224B43F8254091F91230B342CD
S3150000140022DB4A7C03F1604404F561441201D2B246
S3150000141084F800231B4A1C4C42F8230003F1C00544
S315000014205A0954F82570920002F1604266F310479B
S3150000143044F8257002F5614203F01F03012404FA03
S3150000144003F3C2F880311360D1E9054100230F4A46
S315000014500461C0E905310260F0BC18467047502EA1
S3150000146006BF43F0500365463343B7E785F00205F0
S3150000147043EA0513DBB23546B0E700BF006F044010
S31500001480547D0020A07D00200060004054474100AC
S31500001490F0B585B0EFF30383103B5BB203F1C001F7
S315000014A01F4A204C52F821006FF3104042F82100E9
S315000014B054F82350D5E901020178137A0129DBB2E9
S315000014C00CD1F42103F0F0031172E9681372047C65
S315000014D0154840F82410013989B211802F69B7B137
S315000014E06C6901AECCB194E8070086E807009B065C
S315000014F044BF00232371AB6923602046B8476B695C
S315000015001BB196E8070083E80700AA68137ADBB2E6
S3150000151003F00F03137205B0F0BD3446E7E700BFD2
S3150000152000600040A07D0020547D0020064B074946
S3150000153093F826001A6A51F820300549C2F3026270
S31500001540D3400B60704700BF00E00140587C00208C
S31500001550287F002030B4374B374C384938480022B2
S315000015604AF20355A3F8FE53A4F80021354C4C600B
S31500001570354D364C08604FF40040C1E9020493F83B
S315000015802640C1E9040551F824001C6A304DC4F315
S315000015900264E0400924286083F8132483F8A240FB
S315000015A093F8800418B183F8812483F88024214AB3
S315000015B00620002382F8A50082F8323092F83C30EB
S315000015C01807FBD5002342F20170108582F82A30F5
S315000015D0184B93F83C209206FBD5174A022082F856
S315000015E01C01052083F826001A48186293F8260085
S315000015F01C6A51F82000C4F3026C20FA0CF0286033
S31500001600012140244FF4254083F8301083F852100E
S3150000161083F8531083F82440A3F8FE03A2F80411BC
S31500001620B2F804319BB2002BFAD1012330BCA2F8E8
S315000016300031704700E0014000C00140587C0020A6
S31500001640002D310100127A00001C4E0E00366E018C
S31500001650287F002021120121704700BFA0F1010060
S315000016600028FBD1704700BF30B5144D144A00FB6B
S3150000167001F14FF47A732868B2FBF0F2A1FB03C4C0
S315000016804FF0FF304FF0000E60457EEB040407D3A9
S31500001690BCFBF2F0800878B1BDE83040FFF7DEBF52
S315000016A09200B1FBF2F1A1FB031388427EEB030328
S315000016B0F2D308460028EFD130BD00BF287F0020B6
S315000016C000CA9A3B0B4B70B5B3F840510A4E002442
S315000016D0ADB225FA04F3DB07E0B203D556F82430A1
S315000016E003B198470134102CF3D1024BA3F83051C3
S315000016F070BD00BF006000405C7D002010B4074A4A
S31500001700074C002303F1C001013332F8020F44F8FD
S315000017102100602BF6D15DF8044B7047D21E000005
S3150000172000600040EFF31081012383F31088124B11
S3150000173033F8102092B22AB133F81020013A92B24F
S3150000174023F8102033F810309BB293B90B4A10B42B
S31500001750B2F8FE330A4C9BB234F8100043F425432A
S3150000176023EA0003A2F8FE3381F310885DF8044BE8
S31500001770704781F310887047207F002000E0014009
S31500001780CC1F000030B4EFF31081012383F31088DF
S315000017900E4A32F810309BB26BB90D4C0D4DB4F8B1
S315000017A0FE3335F810C09BB243EA0C0343F42543DD
S315000017B09BB2A4F8FE3332F8103001339BB222F804
S315000017C0103081F3108830BC704700BF207F0020A6
S315000017D000E00140CC1F000000BE704708B500F0D5
S315000017E003F8FFF781FAFEE7224B234A4FF4700114
S315000017F070B50020C3F888109A60FFF769FAFFF702
S31500001800A9FE0120FFF764FA1C4B1D491D4D1E4E13
S315000018101E481F4A00244FF4254C9C80A3F800C0A4
S315000018209E60DD604FF48055A1F82051012199801A
S31500001830121A214600F02AFA1648174A1749184D77
S31500001840121A00F015FA174B5B1BA34206DD9E1019
S3150000185055F8043B01349847A642F9DCFFF766FECB
S315000018600220FFF735FAFFF749FFBDE87040002078
S31500001870FFF7F2BE00ED00E000000000000D0040A2
S315000018800060004030830020307F0020707C002004
S315000018902C7F00200000FE1F587C0020D81F00006F
S315000018A0507C0020547C002081F0004102E000BF03
S315000018B083F0004330B54FEA41044FEA430594EA0A
S315000018C0050F08BF90EA020F1FBF54EA000C55EA45
S315000018D0020C7FEA645C7FEA655C00F0E2804FEA16
S315000018E05454D4EB5555B8BF6D420CDD2C4480EAF8
S315000018F0020281EA030382EA000083EA010180EA28
S31500001900020281EA0303362D88BF30BD11F0004F75
S315000019104FEA01314FF4801C4CEA113102D04042AB
S3150000192061EB410113F0004F4FEA03334CEA1333E6
S3150000193002D0524263EB430394EA050F00F0A780FE
S31500001940A4F10104D5F1200E0DDB02FA0EFC22FAF9
S3150000195005F2801841F1000103FA0EF2801843FAED
S3150000196005F359410EE0A5F120050EF1200E012ADE
S3150000197003FA0EFC28BF4CF0020C43FA05F3C0181C
S3150000198051EBE37101F0004507D54FF0000EDCF195
S31500001990000C7EEB00006EEB0101B1F5801F1BD33E
S315000019A0B1F5001F0CD349085FEA30004FEA3C0C42
S315000019B004F101044FEA445212F5800F80F09A8038
S315000019C0BCF1004F08BF5FEA500C50F1000041EB3C
S315000019D0045141EA050130BD5FEA4C0C404141EB40
S315000019E00101013C28BFB1F5801FE9D291F0000F3B
S315000019F004BF01460020B1FA81F308BF2033A3F1EA
S31500001A000B03B3F120020CDA0C3208DD02F1140CE0
S31500001A10C2F10C0201FA0CF021FA02F10CE002F11B
S31500001A201402D8BFC2F1200C01FA02F120FA0CFC14
S31500001A30DCBF41EA0C019040E41AA2BF01EB04515D
S31500001A40294330BD6FEA04041F3C1CDA0C340EDC5B
S31500001A5004F11404C4F1200220FA04F001FA02F39E
S31500001A6040EA030021FA04F345EA030130BDC4F15C
S31500001A700C04C4F1200220FA02F001FA04F340EA51
S31500001A800300294630BD21FA04F0294630BD94F002
S31500001A90000F83F4801306BF81F480110134013DE9
S31500001AA04EE77FEA645C18BF7FEA655C29D094EA5A
S31500001AB0050F08BF90EA020F05D054EA000C04BFD8
S31500001AC01946104630BD91EA030F1EBF00210020C3
S31500001AD030BD5FEA545C05D14000494128BF41F062
S31500001AE0004130BD14F580043CBF01F5801130BDC6
S31500001AF001F0004545F0FE4141F470014FF0000051
S31500001B0030BD7FEA645C1ABF194610467FEA655C01
S31500001B101CBF0B46024650EA013406BF52EA0335A3
S31500001B2091EA030F41F4002130BD00BF90F0000F91
S31500001B3004BF0021704730B54FF4806404F13204CD
S31500001B404FF000054FF0000150E700BF90F0000F86
S31500001B5004BF0021704730B54FF4806404F13204AD
S31500001B6010F0004548BF40424FF000013EE700BF7D
S31500001B7042004FEAE2014FEA31014FEA02701FBF0D
S31500001B8012F07F4393F07F4F81F06051704732F03F
S31500001B907F4208BF704793F07F4F04BF41F4002196
S31500001BA0704730B54FF4607401F0004521F00041F4
S31500001BB01CE700BF50EA010208BF704730B54FF07E
S31500001BC000050AE050EA010208BF704730B511F07F
S31500001BD0004502D5404261EB41014FF4806404F1B7
S31500001BE032045FEA915C3FF4D8AE4FF003025FEA3D
S31500001BF0DC0C18BF03325FEADC0C18BF033202EBC1
S31500001C00DC02C2F1200300FA03FC20FA02F001FA1A
S31500001C1003FE40EA0E0021FA02F11444BDE600BFBD
S31500001C204FEA410212F5001215D211D56FF47873FE
S31500001C30B3EB625212D94FEAC12343F0004343EAA1
S31500001C40505311F0004F23FA02F018BF404270477C
S31500001C504FF00000704750EA013005D111F0004006
S31500001C6008BF6FF0004070474FF00000704700BF9C
S31500001C700A44914200F1FF3300D1704710B511F8C4
S31500001C80014B03F8014F9142F9D110BD02440346BE
S31500001C90934200D1704703F8011BF9E74275696C5E
S31500001CA07420776974682052656E6573617320418C
S31500001CB06476616E63656420466C657869626C65FE
S31500001CC020536F667477617265205061636B61673C
S31500001CD0652076657273696F6E20332E352E30005F
S31500001CE0332E352E3000000000000503F8B500BF86
S31500001CF0F8BC08BC9E467047F8B500BFF8BC08BCE7
S31500001D009E4670470B0000000B0000000B00000011
S31500001D100B0000003F065B4F666D7D277F6F40001E
S31500001D20B47C0020EC1D0000941F000000000000A1
S31500001D30341D0000000000000B0C02000300000030
S31500001D406905000000000000000000000C0C030004
S31500001D50030000006905000000000000000000000C
S31500001D600D0C0400030000006905000000000000DF
S31500001D7000000000080C05000300000069050000D3
S31500001D800000000000000000090C0600030000002F
S31500001D9069050000000000000000000000000000CF
S31500001DA0200000000000000010000000000C0000F1
S31500001DB04105000000000000BC1D000040000001BD
S31500001DC0000000FF000000000040000000000000CE
S31500001DD000200000010C0100590500000000000071
S31500001DE0E41D000040000001000000FF1C00000090
S31500001DF0F41D000000400000060000000040000046
S31500001E0008000000004000000900000000800000FB
S31500001E100E000000000001000801000000000100A3
S31500001E2009010000000001000A0100000000010095
S31500001E30000300000040000004030000040000004E
S31500001E400503000004000000060300000400000073
S31500001E50070300000400000008030000040000005F
S31500001E60090300000500000004060000050000004C
S31500001E70050600000500000006060000050000003B
S31500001E8007060000050000000B0600000500000024
S31500001E900C060000050000000D060000050000000D
S31500001EA00E060000004000000707000004000000C6
S31500001EB00509000005000000080A000005000000F2
S31500001EC0090A0000050000000A0A000005000000DB
S31500001ED0000B0000400043000C000D000E0009003E
S31500001EE00A000000000000000000000000000000E2
S31500001EF000000000000000000000000000000000DC
S31500001F0000000000000000000000000000000000CB
S31500001F1000000000000000000000000000000000BB
S31500001F2000000000000000000000000000000000AB
S31500001F30000000000000000000000000000000009B
S31500001F40000000000000000000000000000000008B
S31500001F50000000000000000000000000000000007B
S31500001F60000000000000000000000000000000006B
S31500001F70000000000000000000000000000000005B
S31500001F80000000000000000000000000000000004B
S31500001F9000000000910F0000F50C0000A90F0000E2
S31500001FA0B50F0000A90D0000010E0000F50D0000A0
S31500001FB0FD0C0000490D0000690D0000910D0000A8
S31500001FC0D90D0000190D00002D0D000001000200C2
S30D00001FD00800100000000000EB
S31500001FD801000000000000000000000000000000F2
S31500001FE800080008000800080008000800080008A3
S31500001FF80008000800080008000800080008000893
S315000020080008000800080008000800080008000882
S315000020180008000800080008000800080008000872
S31500002B98000800080008000800080008FF070008E9
S31500002BA800080008000800080008000800080008D7
S31500002BB800080008000800080008000800080008C7
S31500002BC800080008000800080008000800080008B7
S31500002BD800080008000800080008000800080008A7
S31500002BE80008000800080008000800080008000897
S31500002BF80008000800080008000800080008000887
S31500002C080008000800080008000800080008000876
S31500002C1800080008FF070008000800080008000868
S31500002C280008000800080008000800080008000856
S31500002C380008000800080008000800080008000846
S31500002C480008FF0700080008000800080008FF073A
S31500002C580008000800080008000800080008000826
S31500002C680008000800080008000800080008000816
S31500002C780008000800080008000800080008000806
S31500002C8800080008000800080008000800080008F6
S31500002C9800080008000800080008000800080008E6
S31500002CA800080008000800080008000800080008D6
S31500002CB800080008000800080008000800080008C6
S31500002CC800080008000800080008000800080008B6
S31500002CD800080008000800080008000800080008A6
S31500002CE80008000800080008000800080008000896
S31500002CF8000800080008FF07000800080008000888
S31500002D080008000800080008000800080008000875
S31500002D180008000800080008000800080008000865
S31500002D280008000800080008000800080008000855
S31500002D380008000800080008000800080008000845
S31500002D480008000800080008000800080008000835
S31500002D580008000800080008000800080008000825
S31500002D6800080008FF07000800080008FF07000819
S31500002D780008000800080008000800080008000805
S31500002D8800080008000800080008000800080008F5
S31500002D9800080008000800080008000800080008E5
S31500002DA80008FF07000800080008000800080008D7
S31500002DB800080008000800080008FF0700080008C7
S31500002DC800080008000800080008000800080008B5
S31500002DD8000800080008FF070008000800080008A7
S31500002DE80008000800080008000800080008000895
S31500002DF80008000800080008000800080008000885
S31500002E080008000800080008000800080008000874
S31500002E180008000800080008000800080008FF0766
S31500002E280008000800080008000800080008FF0756
S31500002E380008000800080008000800080008FF0746
S31500002E480008000800080008000800080008000834
S31500002E580008000800080008000800080008000824
S31500002E680008000800080008000800080008000814
S31500002E780008000800080008000800080008000804
S31500002E88000800080008FF070008000800080008F6
S31500002E9800080008000800080008000800080008E4
S31500002EA80008000800080008FF07000800080008D6
S31500002EB800080008000800080008000800080008C4
S31500002EC800080008000800080008000800080008B4
S31500002ED800080008000800080008000800080008A4
S31500002EE80008000800080008000800080008000894
S31500002EF80008000800080008000800080008000884
S31500002F080008000800080008000800080008000873
S31500002F180008000800080008000800080008FF0765
S31500002F280008000800080008000800080008000853
S31500002F380008000800080008000800080008000843
S31500002F480008000800080008000800080008000833
S31500002F580008000800080008000800080008FF0725
S31500002F68FF07000800080008000800080008000815
S31500002F780008000800080008000800080008000803
S31500002F8800080008000800080008000800080008F3
S31500002F9800080008000800080008000800080008E3
S31500002FA800080008000800080008000800080008D3
S31500002FB800080008000800080008000800080008C3
S31500002FC800080008000800080008000800080008B3
S31500002FD800080008000800080008000800080008A3
S31500002FE80008000800080008000800080008000893
S31500002FF80008000800080008000800080008000883
S315000030080008000800080008000800080008000872
S315000030180008000800080008000800080008000862
S315000030280008000800080008000800080008000852
S315000030380008000800080008000800080008000842
S315000030480008000800080008000800080008000832
S315000030580008000800080008000800080008000822
S315000030680008000800080008000800080008000812
S315000030780008000800080008000800080008000802
S31500003088000800080008000800080008FF070008F4
S3150000309800080008000800080008FF0700080008E4
S315000030A80008000800080008FF07000800080008D4
S315000030B8000800080008000800080008FF070008C4
S315000030C800080008000800080008000800080008B2
S315000030D800080008000800080008000800080008A2
S315000030E80008000800080008000800080008000892
S315000030F80008000800080008000800080008000882
S315000031080008000800080008000800080008000871
S315000031180008000800080008000800080008000861
S315000031280008000800080008000800080008000851
S315000031380008000800080008000800080008000841
S315000031480008000800080008000800080008000831
S3150000315800080008FF070008000800080008000823
S315000031680008000800080008000800080008000811
S315000031780008FF0700080008000800080008000803
S3150000318800080008000800080008000800080008F1
S3150000319800080008000800080008000800080008E1
S315000031A800080008000800080008000800080008D1
S315000031B800080008000800080008000800080008C1
S315000031C80008000800080008000800080008FF07B3
S315000031D800080008000800080008000800080008A1
S315000031E80008000800080008000800080008000891
S315000031F80008000800080008000800080008000881
S315000032080008000800080008000800080008000870
S315000032180008000800080008000800080008000860
S315000032280008000800080008000800080008000850
S315000032380008000800080008000800080008000840
S315000032480008000800080008000800080008000830
S315000032580008000800080008000800080008000820
S315000032680008000800080008000800080008000810
S3150000327800080008000800080008FF070008000802
S3150000328800080008000800080008000800080008F0
S3150000329800080008000800080008000800080008E0
S315000032A800080008000800080008000800080008D0
S315000032B800080008000800080008000800080008C0
S315000032C800080008000800080008000800080008B0
S315000032D800080008000800080008000800080008A0
S315000032E80008000800080008000800080008000890
S315000032F80008000800080008000800080008000880
S31500003308000800080008000800080008000800086F
S31500003318000800080008000800080008000800085F
S31500003328000800080008000800080008000800084F
S31500003338000800080008000800080008000800083F
S31500003348000800080008000800080008000800082F
S31500003358000800080008000800080008000800081F
S31500003368000800080008000800080008000800080F
S3150000337800080008000800080008000800080008FF
S3150000338800080008000800080008000800080008EF
S3150000339800080008000800080008000800080008DF
S315000033A800080008000800080008000800080008CF
S315000033B8000800080008FF07000800080008FF07C3
S315000033C800080008000800080008000800080008AF
S315000033D8000800080008000800080008000800089F
S315000033E8000800080008000800080008000800088F
S315000033F8000800080008000800080008000800087F
S3150000340800080008FF070008000800080008000870
S31500003418000800080008000800080008000800085E
S31500003428FF07000800080008000800080008000850
S31500003438000800080008000800080008000800083E
S31500003448000800080008000800080008000800082E
S31500003458000800080008000800080008000800081E
S31500003468000800080008000800080008000800080E
S3150000347800080008000800080008000800080008FE
S3150000348800080008000800080008000800080008EE
S3150000349800080008000800080008000800080008DE
S315000034A80008FF07000800080008000800080008D0
S315000034B8000800080008000800080008FF07FF07C2
S315000034C800080008000800080008000800080008AE
S315000034D8000800080008000800080008000800089E
S315000034E800080008FF070008000800080008000890
S315000034F8000800080008000800080008000800087E
S31500003508000800080008000800080008000800086D
S31500003518000800080008000800080008000800085D
S31500003528000800080008000800080008000800084D
S31500003538000800080008000800080008000800083D
S31500003548000800080008000800080008000800082D
S31500003558000800080008000800080008000800081D
S3150000356800080008FF07000800080008000800080F
S3150000357800080008000800080008000800080008FD
S3150000358800080008000800080008000800080008ED
S3150000359800080008000800080008000800080008DD
S315000035A800080008000800080008000800080008CD
S315000035B8000800080008000800080008FF070008BF
S315000035C800080008000800080008000800080008AD
S315000035D8000800080008000800080008000800089D
S315000035E8000800080008000800080008000800088D
S315000035F8000800080008000800080008000800087D
S31500003608000800080008000800080008000800086C
S31500003618000800080008000800080008000800085C
S31500003628000800080008000800080008000800084C
S31500003638000800080008000800080008000800083C
S315000036480008FF070008000800080008000800082E
S31500003658000800080008000800080008FF0700081E
S31500003668000800080008000800080008000800080C
S3150000367800080008000800080008000800080008FC
S315000036880008000800080008000800080008FF07EE
S31500003698FF070008000800080008000800080008DE
S315000036A800080008000800080008000800080008CC
S315000036B800080008000800080008000800080008BC
S315000036C80008000800080008FF07FF0700080008B0
S315000036D8000800080008000800080008000800089C
S315000036E8000800080008000800080008000800088C
S315000036F8000800080008000800080008000800087C
S31500003708000800080008000800080008000800086B
S31500003718000800080008000800080008000800085B
S31500003728000800080008000800080008000800084B
S31500003738000800080008000800080008000800083B
S31500003748000800080008000800080008000800082B
S31500003758000800080008000800080008000800081B
S31500003768000800080008000800080008000800080B
S3150000377800080008000800080008000800080008FB
S3150000378800080008000800080008000800080008EB
S315000037980008FF07000800080008000800080008DD
S315000037A800080008000800080008000800080008CB
S315000037B800080008000800080008000800080008BB
S315000037C800080008000800080008000800080008AB
S315000037D80008FF070008000800080008000800089D
S315000037E8000800080008000800080008000800088B
S315000037F8000800080008000800080008000800087B
S31500003808FF0700080008000800080008000800086C
S31500003818000800080008000800080008000800085A
S31500003828000800080008000800080008000800084A
S31500003838000800080008000800080008000800083A
S31500003848000800080008000800080008000800082A
S31500003858000800080008000800080008000800081A
S31500003868000800080008000800080008000800080A
S3150000387800080008000800080008000800080008FA
S3150000388800080008000800080008000800080008EA
S3150000389800080008000800080008FF0700080008DC
S315000038A800080008000800080008000800080008CA
S315000038B800080008000800080008000800080008BA
S315000038C800080008000800080008000800080008AA
S315000038D8000800080008000800080008000800089A
S315000038E8000800080008000800080008000800088A
S315000038F8000800080008000800080008FF0700087C
S315000039080008000800080008000800080008000869
S315000039180008000800080008000800080008000859
S315000039280008000800080008000800080008000849
S315000039380008000800080008000800080008000839
S315000039480008000800080008000800080008000829
S315000039580008000800080008000800080008000819
S315000039680008000800080008000800080008000809
S3150000397800080008000800080008000800080008F9
S3150000398800080008000800080008000800080008E9
S315000039980008FF07000800080008000800080008DB
S315000039A800080008000800080008000800080008C9
S315000039B800080008000800080008000800080008B9
S315000039C800080008000800080008000800080008A9
S315000039D80008000800080008000800080008000899
S315000039E80008000800080008000800080008000889
S315000039F80008000800080008000800080008000879
S31500003A080008000800080008000800080008000868
S31500003A180008000800080008000800080008000858
S31500003A280008000800080008000800080008000848
S31500003A380008000800080008000800080008000838
S31500003A480008000800080008000800080008000828
S31500003A580008000800080008000800080008000818
S31500003A680008000800080008000800080008000808
S31500003A7800080008000800080008000800080008F8
S31500003A880008000800080008FF07000800080008EA
S31500003A9800080008000800080008000800080008D8
S31500003AA800080008000800080008000800080008C8
S31500003AB800080008000800080008000800080008B8
S31500003AC800080008000800080008000800080008A8
S31500003AD8000800080008FF0700080008000800089A
S31500003AE80008000800080008000800080008000888
S31500003AF80008000800080008000800080008000878
S31500003B08000800080008FF07000800080008000869
S31500003B180008000800080008000800080008000857
S31500003B28FF07000800080008000800080008000849
S31500003B380008000800080008000800080008000837
S31500003B480008000800080008000800080008000827
S31500003B580008000800080008000800080008000817
S31500003B680008000800080008000800080008000807
S31500003B7800080008000800080008000800080008F7
S31500003B8800080008000800080008000800080008E7
S31500003B9800080008000800080008000800080008D7
S31500003BA800080008000800080008000800080008C7
S31500003BB800080008000800080008000800080008B7
S31500003BC800080008000800080008000800080008A7
S31500003BD80008000800080008000800080008000897
S31500003BE80008000800080008000800080008000887
S31500003BF80008000800080008000800080008000877
S31500003C080008000800080008000800080008000866
S31500003C180008000800080008000800080008000856
S31500003C280008000800080008000800080008000846
S31500003C380008000800080008000800080008000836
S31500003C480008000800080008000800080008000826
S31500003C5800080008000800080008FF070008000818
S31500003C680008000800080008000800080008FF0708
S31500003C7800080008000800080008FF0700080008F8
S31500003C8800080008000800080008000800080008E6
S31500003C980008FF070008FF070008000800080008DA
S31500003CA800080008000800080008000800080008C6
S31500003CB800080008000800080008000800080008B6
S31500003CC800080008000800080008000800080008A6
S31500003CD80008000800080008000800080008000896
S31500003CE80008000800080008000800080008000886
S31500003CF8000800080008FF07000800080008000878
S31500003D080008000800080008000800080008000865
S31500003D180008000800080008000800080008000855
S31500003D280008000800080008000800080008000845
S31500003D380008000800080008000800080008000835
S31500003D480008000800080008000800080008000825
S31500003D580008000800080008000800080008000815
S31500003D680008FF0700080008000800080008000807
S31500003D7800080008000800080008000800080008F5
S31500003D8800080008000800080008000800080008E5
S31500003D9800080008000800080008FF0700080008D7
S31500003DA800080008000800080008000800080008C5
S31500003DB800080008000800080008000800080008B5
S31500003DC800080008000800080008000800080008A5
S31500003DD80008000800080008000800080008000895
S31500003DE80008000800080008000800080008000885
S31500003DF80008000800080008000800080008000875
S31500003E080008000800080008000800080008000864
S31500003E180008000800080008000800080008000854
S31500003E280008000800080008000800080008000844
S31500003E380008000800080008000800080008000834
S31500003E480008000800080008000800080008000824
S31500003E580008000800080008000800080008000814
S31500003E680008000800080008000800080008000804
S31500003E7800080008000800080008000800080008F4
S31500003E8800080008000800080008000800080008E4
S31500003E980008FF07000800080008000800080008D6
S31500003EA800080008000800080008000800080008C4
S31500003EB80008000800080008FF07000800080008B6
S31500003EC800080008000800080008000800080008A4
S31500003ED80008000800080008000800080008000894
S31500003EE80008000800080008000800080008000884
S31500003EF80008000800080008000800080008000874
S31500003F0800080008000800080008FF070008000865
S31500003F180008000800080008000800080008000853
S31500003F28000800080008FF07000800080008000845
S31500003F380008000800080008000800080008000833
S31500003F48000800080008FF0700080008FF07000827
S31500003F580008000800080008000800080008000813
S31500003F680008000800080008000800080008000803
S31500003F7800080008000800080008000800080008F3
S31500003F8800080008000800080008000800080008E3
S31500003F9800080008000800080008000800080008D3
S31500003FA800080008000800080008000800080008C3
S31500003FB8000800080008FF07FF07000800080008B7
S31500003FC80008000800080008FF07000800080008A5
S31500003FD80008000800080008FF07FF070008000897
S31500003FE800080008FF070008000800080008000885
S31500003FF80008000800080008000800080008000873
S315000040080008000800080008000800080008000862
S315000040180008000800080008000800080008000852
S315000040280008000800080008000800080008000842
S315000040380008000800080008000800080008000832
S315000040480008000800080008000800080008000822
S31500004058000800080008000800080008FF07000814
S315000040680008000800080008000800080008000802
S31500004078FF070008000800080008000800080008F4
S3150000408800080008000800080008000800080008E2
S3150000409800080008000800080008000800080008D2
S315000040A800080008000800080008000800080008C2
S315000040B800080008000800080008000800080008B2
S315000040C800080008000800080008000800080008A2
S315000040D8000800080008FF0700080008FF07000896
S315000040E80008000800080008000800080008000882
S315000040F80008000800080008000800080008000872
S315000041080008000800080008FF0700080008000863
S315000041180008000800080008000800080008FF0753
S315000041280008000800080008000800080008000841
S315000041380008000800080008000800080008000831
S315000041480008000800080008000800080008000821
S315000041580008000800080008000800080008000811
S315000041680008000800080008000800080008000801
S3150000417800080008000800080008000800080008F1
S3150000418800080008000800080008000800080008E1
S31500004198FF070008000800080008000800080008D3
S315000041A80008FF07000800080008000800080008C3
S315000041B800080008000800080008000800080008B1
S315000041C800080008000800080008000800080008A1
S315000041D80008000800080008000800080008000891
S315000041E80008000800080008000800080008000881
S315000041F80008000800080008000800080008000871
S315000042080008000800080008000800080008000860
S315000042180008000800080008000800080008000850
S31500004228000800080008000800080008FF07FF0744
S315000042380008000800080008000800080008000830
S315000042480008000800080008000800080008000820
S315000042580008000800080008000800080008000810
S315000042680008000800080008000800080008000800
S3150000427800080008000800080008000800080008F0
S31500004288000800080008FF070008000800080008E2
S3150000429800080008000800080008000800080008D0
S315000042A800080008000800080008000800080008C0
S315000042B800080008000800080008000800080008B0
S315000042C800080008000800080008000800080008A0
S315000042D80008000800080008000800080008000890
S315000042E80008000800080008000800080008000880
S315000042F80008000800080008000800080008000870
S31500004308000800080008000800080008000800085F
S31500004318000800080008000800080008000800084F
S31500004328000800080008000800080008000800083F
S31500004338000800080008000800080008000800082F
S31500004348000800080008000800080008000800081F
S31500004358000800080008000800080008000800080F
S3150000436800080008000800080008000800080008FF
S3150000437800080008000800080008000800080008EF
S3150000438800080008000800080008000800080008DF
S3150000439800080008000800080008000800080008CF
S315000043A800080008000800080008000800080008BF
S315000043B800080008000800080008000800080008AF
S315000043C80008000800080008000800080008FF07A1
S315000043D8000800080008000800080008000800088F
S315000043E8000800080008000800080008000800087F
S315000043F8000800080008000800080008000800086F
S3150000440800080008000800080008FF070008000860
S3150000441800080008000800080008FF070008000850
S31500004428000800080008000800080008FF07000840
S315000044380008FF070008FF07000800080008000832
S315000044480008FF0700080008000800080008000820
S3150000445800080008000800080008FF070008000810
S3150000446800080008000800080008000800080008FE
S3150000447800080008000800080008000800080008EE
S3150000448800080008000800080008000800080008DE
S3150000449800080008000800080008000800080008CE
S315000044A800080008000800080008000800080008BE
S315000044B800080008000800080008000800080008AE
S315000044C8000800080008000800080008000800089E
S315000044D8000800080008FF07000800080008000890
S315000044E8000800080008000800080008000800087E
S315000044F8000800080008000800080008000800086E
S31500004508000800080008000800080008000800085D
S31500004518000800080008000800080008000800084D
S31500004528000800080008000800080008000800083D
S31500004538000800080008000800080008000800082D
S315000045480008000800080008000800080008FF071F
S315000045580008FF07FF070008000800080008000811
S3150000456800080008000800080008000800080008FD
S3150000457800080008000800080008000800080008ED
S3150000458800080008000800080008000800080008DD
S3150000459800080008000800080008000800080008CD
S315000045A800080008000800080008000800080008BD
S315000045B800080008000800080008000800080008AD
S315000045C8000800080008000800080008000800089D
S315000045D8000800080008000800080008000800088D
S315000045E8000800080008000800080008000800087D
S315000045F8000800080008000800080008000800086D
S31500004608000800080008000800080008000800085C
S31500004618000800080008000800080008000800084C
S31500004628000800080008000800080008000800083C
S315000046380008000800080008FF0700080008FF0730
S3150000464800080008FF070008FF07FF070008000822
S31500004658000800080008000800080008000800080C
S3150000466800080008000800080008000800080008FC
S3150000467800080008000800080008000800080008EC
S3150000468800080008FF070008000800080008FF07E0
S3150000469800080008000800080008000800080008CC
S315000046A800080008000800080008000800080008BC
S315000046B800080008000800080008000800080008AC
S315000046C80008000800080008000800080008FF079E
S315000046D8000800080008000800080008000800088C
S315000046E8000800080008000800080008000800087C
S315000046F80008000800080008FF070008000800086E
S31500004708000800080008000800080008000800085B
S31500004718000800080008000800080008000800084B
S31500004728000800080008000800080008000800083B
S315000047380008FF07000800080008FF07000800082F
S31500004748000800080008000800080008000800081B
S31500004758000800080008000800080008000800080B
S3150000476800080008000800080008000800080008FB
S3150000477800080008000800080008000800080008EB
S31500004788000800080008FF070008000800080008DD
S3150000479800080008000800080008000800080008CB
S315000047A800080008000800080008FF0700080008BD
S315000047B800080008000800080008000800080008AB
S315000047C8000800080008000800080008000800089B
S315000047D8000800080008000800080008000800088B
S315000047E8000800080008000800080008000800087B
S315000047F8000800080008000800080008000800086B
S31500004808000800080008000800080008000800085A
S31500004818000800080008000800080008000800084A
S31500004828000800080008000800080008000800083A
S315000048380008000800080008FF070008000800082C
S31500004848000800080008000800080008000800081A
S31500004858000800080008000800080008000800080A
S3150000486800080008000800080008000800080008FA
S3150000487800080008000800080008000800080008EA
S31500004888000800080008FF070008000800080008DC
S3150000489800080008000800080008000800080008CA
S315000048A800080008FF07FF070008000800080008BE
S315000048B800080008000800080008000800080008AA
S315000048C8000800080008000800080008000800089A
S315000048D8000800080008000800080008000800088A
S315000048E8000800080008000800080008000800087A
S315000048F8000800080008000800080008000800086A
S315000049080008000800080008000800080008000859
S31500004918000800080008000800080008FF0700084B
S315000049280008000800080008000800080008000839
S315000049380008000800080008000800080008000829
S315000049480008000800080008000800080008000819
S315000049580008000800080008000800080008000809
S3150000496800080008000800080008000800080008F9
S3150000497800080008000800080008000800080008E9
S3150000498800080008000800080008000800080008D9
S3150000499800080008000800080008000800080008C9
S315000049A800080008000800080008000800080008B9
S315000049B800080008000800080008000800080008A9
S315000049C80008000800080008000800080008000899
S315000049D80008000800080008000800080008000889
S315000049E80008000800080008000800080008000879
S315000049F80008000800080008000800080008000869
S31500004A080008FF070008000800080008000800085A
S31500004A180008000800080008000800080008000848
S31500004A2800080008FF0700080008FF07FF0700083E
S31500004A380008000800080008000800080008000828
S31500004A4800080008FF07000800080008000800081A
S31500004A580008000800080008000800080008000808
S31500004A6800080008000800080008000800080008F8
S31500004A7800080008000800080008000800080008E8
S31500004A8800080008000800080008000800080008D8
S31500004A9800080008000800080008000800080008C8
S31500004AA800080008000800080008000800080008B8
S31500004AB800080008000800080008000800080008A8
S31500004AC80008000800080008000800080008000898
S31500004AD80008000800080008000800080008000888
S31500004AE80008000800080008000800080008000878
S31500004AF80008000800080008000800080008000868
S31500004B080008000800080008000800080008000857
S31500004B180008000800080008000800080008000847
S31500004B280008000800080008000800080008000837
S31500004B38000800080008FF07FF070008000800082B
S31500004B480008000800080008000800080008000817
S31500004B580008000800080008000800080008000807
S31500004B6800080008FF0700080008000800080008F9
S31500004B7800080008FF0700080008000800080008E9
S31500004B88000800080008FF070008000800080008D9
S31500004B9800080008000800080008000800080008C7
S31500004BA80008FF07000800080008000800080008B9
S31500004BB800080008000800080008000800080008A7
S31500004BC800080008FF0700080008FF07000800089B
S31500004BD8FF0700080008FF0700080008000800088B
S31500004BE80008000800080008000800080008000877
S31500004BF80008000800080008000800080008000867
S31500004C08FF07000800080008000800080008000858
S31500004C180008000800080008000800080008000846
S31500004C280008000800080008000800080008000836
S31500004C380008000800080008000800080008000826
S31500004C480008000800080008000800080008000816
S31500004C580008000800080008000800080008000806
S31500004C6800080008000800080008000800080008F6
S31500004C7800080008000800080008000800080008E6
S31500004C8800080008000800080008000800080008D6
S31500004C9800080008000800080008000800080008C6
S31500004CA800080008FF07FF07FF07000800080008BC
S31500004CB8FF070008000800080008000800080008A8
S31500004CC80008000800080008000800080008000896
S31500004CD80008000800080008000800080008000886
S31500004CE80008000800080008000800080008FF0778
S31500004CF8FF07000800080008000800080008000868
S31500004D080008000800080008000800080008000855
S31500004D180008000800080008000800080008000845
S31500004D280008000800080008000800080008000835
S31500004D380008000800080008000800080008000825
S31500004D480008000800080008000800080008000815
S31500004D580008000800080008000800080008000805
S31500004D6800080008000800080008000800080008F5
S31500004D7800080008000800080008000800080008E5
S31500004D8800080008000800080008000800080008D5
S31500004D9800080008000800080008000800080008C5
S31500004DA800080008000800080008000800080008B5
S31500004DB800080008000800080008000800080008A5
S31500004DC8000800080008000800080008FF07000897
S31500004DD80008000800080008000800080008000885
S31500004DE800080008FF070008000800080008000877
S31500004DF80008000800080008000800080008000865
S31500004E080008000800080008000800080008000854
S31500004E18FF07000800080008000800080008000846
S31500004E280008000800080008000800080008000834
S31500004E380008FF0700080008000800080008000826
S31500004E48FF07FF07FF07000800080008000800081A
S31500004E580008000800080008000800080008000804
S31500004E6800080008000800080008000800080008F4
S31500004E7800080008000800080008000800080008E4
S31500004E8800080008000800080008000800080008D4
S31500004E9800080008000800080008000800080008C4
S31500004EA800080008000800080008000800080008B4
S31500004EB800080008000800080008000800080008A4
S31500004EC80008000800080008000800080008000894
S31500004ED80008000800080008000800080008FF0786
S31500004EE800080008FF070008000800080008000876
S31500004EF8000800080008FF07FF0700080008000868
S31500004F08FF0700080008000800080008FF07FF0759
S31500004F18000800080008FF07000800080008000845
S31500004F280008000800080008000800080008000833
S31500004F380008000800080008000800080008000823
S31500004F480008FF0700080008000800080008000815
S31500004F580008000800080008000800080008000803
S31500004F6800080008000800080008000800080008F3
S31500004F7800080008000800080008000800080008E3
S31500004F8800080008000800080008000800080008D3
S31500004F9800080008000800080008000800080008C3
S31500004FA800080008000800080008000800080008B3
S31500004FB80008000800080008000800080008FF07A5
S31500004FC80008000800080008000800080008000893
S31500004FD8FF07000800080008FF0700080008000887
S31500004FE80008000800080008000800080008000873
S31500004FF8FF0700080008FF07000800080008000867
S31500005008000800080008FF07000800080008FF0756
S315000050180008000800080008000800080008000842
S315000050280008000800080008000800080008000832
S3150000503800080008FF070008000800080008000824
S315000050480008000800080008000800080008000812
S315000050580008000800080008000800080008000802
S3150000506800080008000800080008000800080008F2
S3150000507800080008000800080008000800080008E2
S3150000508800080008000800080008000800080008D2
S3150000509800080008000800080008000800080008C2
S315000050A800080008FF0700080008000800080008B4
S315000050B8000800080008FF07FF07000800080008A6
S315000050C80008000800080008000800080008000892
S315000050D800080008FF070008000800080008000884
S315000050E80008000800080008000800080008000872
S315000050F80008000800080008000800080008000862
S315000051080008000800080008000800080008000851
S315000051180008000800080008000800080008000841
S3150000512800080008FF070008000800080008000833
S315000051380008000800080008000800080008000821
S315000051480008000800080008000800080008000811
S315000051580008000800080008000800080008000801
S31500005168FF070008000800080008000800080008F3
S3150000517800080008000800080008000800080008E1
S31500005188FF070008000800080008000800080008D3
S3150000519800080008000800080008000800080008C1
S315000051A800080008000800080008000800080008B1
S315000051B800080008000800080008000800080008A1
S315000051C8FF0700080008FF07000800080008000895
S315000051D800080008000800080008FF070008000883
S315000051E80008000800080008000800080008000871
S315000051F80008000800080008000800080008000861
S315000052080008000800080008000800080008000850
S315000052180008000800080008000800080008FF0742
S315000052280008000800080008000800080008000830
S315000052380008000800080008000800080008000820
S315000052480008000800080008000800080008000810
S3150000525800080008FF070008000800080008000802
S3150000526800080008000800080008000800080008F0
S3150000527800080008000800080008000800080008E0
S31500005288FF07000800080008000800080008FF07D4
S3150000529800080008000800080008000800080008C0
S315000052A800080008000800080008000800080008B0
S315000052B800080008000800080008000800080008A0
S315000052C8FF07000800080008000800080008000892
S315000052D80008000800080008000800080008000880
S315000052E80008000800080008000800080008000870
S315000052F80008000800080008000800080008000860
S31500005308000800080008FF07000800080008000851
S31500005318000800080008000800080008000800083F
S315000053280008FF0700080008000800080008000831
S31500005338000800080008000800080008000800081F
S31500005348000800080008000800080008000800080F
S3150000535800080008000800080008000800080008FF
S3150000536800080008000800080008000800080008EF
S315000056D80008000800080008000800080008FF077E
S315000056E8000800080008000800080008000800086C
S315000056F800080008FF07000800080008000800085E
S31500005708000800080008000800080008000800084B
S31500005718000800080008000800080008000800083B
S315000057280008000800080008000800080008FF072D
S31500005738FF07FF070008000800080008000800081F
S31500005748000800080008000800080008000800080B
S3150000575800080008000800080008000800080008FB
S315000057680008000800080008FF07000800080008ED
S3150000577800080008000800080008FF07FF07FF07E1
S31500005788FF070008000800080008000800080008CD
S31500005798FF07FF07FF07FF070008000800080008C3
S315000057A800080008000800080008FF07FF07FF07B1
S315000057B8FF07FF0700080008000800080008FF07A1
S315000057C8FF07FF070008000800080008000800088F
S315000057D8000800080008000800080008FF07FF077F
S315000057E8FF07000800080008000800080008FF076F
S315000057F800080008000800080008FF07FF0700085F
S3150000580800080008FF07FF07FF07FF07FF07FF0756
S31500005818000800080008FF07FF070008000800083E
S31500005828000800080008000800080008000800082A
S3150000583800080008FF07000800080008000800081C
S31500005848FF0700080008000800080008000800080C
S3150000585800080008000800080008000800080008FA
S31500005868FF07FF07000800080008000800080008EE
S315000058780008000800080008FF07FF0700080008DE
S315000058880008000800080008000800080008FF07CC
S31500005898FF07FF070008000800080008FF07FF07C2
S315000058A8000800080008000800080008FF07FF07AE
S315000058B8FF0700080008000800080008000800089C
S315000058C8FF07FF070008000800080008000800088E
S315000058D800080008FF07FF07FF0700080008FF0782
S315000058E8FF07FF07FF07FF07FF07FF070008000876
S315000058F8FF07FF07FF07FF07000800080008000862
S315000059080008000800080008000800080008FF074B
S31500005918FF07FF0700080008000800080008FF073F
S31500005928FF07FF07FF07FF07FF07FF070008000835
S31500005938000800080008000800080008FF0700081B
S3150000594800080008FF07000800080008FF07FF070F
S31500005958FF070108010800080008010801080008F7
S31500005968FE07FE07FF07FF07FF07FF07FF07FF07FB
S31500005978FE07FF07000800080008000800080008DE
S315000059880108010801080108000800080008FF07C7
S31500005998FE07FF07000800080108020802080008B9
S315000059A8FE07FE07FE07FF07FE07FE0700080208B8
S315000059B80108000800080208020800080008000894
S315000059C8FE07FB07FC07FD07FE07FE07FE07FE07A7
S315000059D8FF07FF07FF07FF07FE07FE07FE07FE078D
S315000059E8000802080308000800080308040800085D
S315000059F8FE07FF070008FF07FD07FD07FD07FD0770
S31500005A08FF0701080108FE07FD07FC07FA07F60766
S31500005A18F607FA07FB07F807F607F907FE07FF0771
S31500005A28FC07FC07FB07F807F907FE07000801084B
S31500005A3802080208FF07FE07FF0701080308030814
S31500005A4802080408060805080408030804080508E7
S31500005A5806080608060808080A08050801080208CC
S31500005A680108FF07FF07FE07F807F507F807FD0710
S31500005A78FE07FA07F807F907F707F407F807FF0715
S31500005A880008FC07F907FA07FE07FF07FF070208E1
S31500005A980208FB07F907FF070108FE0700080608C2
S31500005AA8060801080008FD07F907F807FC07FB07C1
S31500005AB8FA07000804080008FE0703080108F607A5
S31500005AC8F107F407F607F107F007FA070308FB07DB
S31500005AD8F207F607FB07FB07FC0702080408FE07A0
S31500005AE8F607F707FB07FB07FE07050808080D0872
S31500005AF810080808FB07F807F207E507E207ED07AD
S31500005B08F707F207E707E907EF07E907E507E507F4
S31500005B18DB07CF07CE07CC07BE07B807C807DF07DE
S31500005B28E407E207F3070C080D08FB07F407FC0770
S31500005B38FA07E907E207F0070A082C0846084208A8
S31500005B4832082D0828081C0811080208F807FE075D
S31500005B5806080008F007EA0703082B083D08350879
S31500005B6822080708EF07DE07C207B207D107FF07B3
S31500005B78130813081008120819081308F407CD07A4
S31500005B88B607B707C307CD07D907E707E907EC073D
S31500005B98080834084708320814080608FE07FB07F1
S31500005BA818084E0868085A085108690884088408BD
S31500005BB8820893088E08680850084B084808620847
S31500005BC891089F088B086A0844083108300822089B
S31500005BD8F607B1077F079207AF0794079107C9072A
S31500005BE8D707A10743077106DC04DA025401ED0062
S31500005BF82F0146014F01A301F20104020902050221
S31500005C08EC01DA01DC01F7011D022A024002AD02AD
S31500005C18B8039E05CF070F09240911094F097D0905
S31500005C28680936091809150910091A094B0962097C
S31500005C383D092B0940094C094609240995083107ED
S31500005C480B0519034D0250024A023D027502D402A1
S31500005C582603470330031003FF02F7020E033A0335
S31500005C684603330330035D03E703190514074309A5
S31500005C788B0AAC0A800A830A750A560A430A1E0A60
S31500005C88F209E209DD09DC09E209F4091B0A380A06
S31500005C98210AF409C9094F09FE07D105DC033803AF
S31500005CA86E0373034E035B0375039403C303CF03A9
S31500005CB8B8039F039203AB03DD03FD031204180424
S31500005CC805044D0480059907C809EF0AF60AE20A91
S31500005CD81D0B3F0B440B430B110BE60A080B290B54
S31500005CE8140BF00AEB0A0C0B1B0BF90AEB0AEC0A6D
S31500005CF85E0AD008A306EB04620479045F0436043E
S31500005D082C040E04FD0328044C044A043F044204F0
S31500005D18630480046E0454045B0489040905300690
S31500005D2820083C0A660B860B910BD00BDF0BDB0BAE
S31500005D38FC0B140C0D0CF80BE20BDE0BDB0BC60B85
S31500005D48BA0BB60BAB0B9C0B630BB60A3F090B07DA
S31500005D581B05600466045F04510459045004450495
S31500005D684F0467047C04720463048504B604C20401
S31500005D78C204DA042005B605EB06FA08210B180C4E
S31500005D88020CFD0B280C0C0CDC0BE10BF70BEE0BD5
S31500005D98C90BB90BCC0BC80BA30B860B6D0B570B9A
S31500005DA8500B320BA40A2E09F0063305DF04290529
S31500005DB824050A0523053405240528055C058405FC
S31500005DC862053D0564058F05790561057B05A7050F
S31500005DD8E605C906C808080B1A0C040CE80B120CD1
S31500005DE8290C390C570C510C1E0CF00BE70BF40B55
S31500005DF8F80B030C2C0C570C630C4E0C220CA10B45
S31500005E082E0ACA07D10554059D05A80591059705CB
S31500005E18860568058205CD05080612060C060506E0
S31500005E28DD05A305A105D5050B066A068D07B40988
S31500005E38ED0BE80CD40CCC0CEA0CC80CA80CBA0C6C
S31500005E48B40C8D0C6B0C3A0CFE0BE30BFB0B320CF3
S31500005E585A0C550C2C0CE30B440BCE098707B405DA
S31500005E685705AE05B905A505A9058A056B05890572
S31500005E78CA05140649064D0634061106DC05A805AA
S31500005E88A605F705A106C807A2098F0B690C430CDE
S31500005E982C0C570C710C970CB60C920C630C4C0C12
S31500005EA8260C020C010C1A0C420C650C660C3B0CF9
S31500005EB8E80B4D0BF709E4074406EE051E06140623
S31500005EC80606F105AA058B05B805F1051B06380671
S31500005ED850066D0666062406F5051A067906FC06BA
S31500005EE80A08FC09EF0B9D0C680C670C830C730CF5
S31500005EF89E0CFA0C060DC40C760C3F0C350C400CA7
S31500005F08480C640C8D0C910C600C0D0C600BC309CD
S31500005F187907FC05E7052206100616061906CF05B9
S31500005F289805B205DC05E405CB05B205C005D30521
S31500005F38BB0595059D05EA059006F307380A400C4A
S31500005F48C50C560C2F0C4C0C550C880CC80CB80CF0
S31500005F58820C6D0C750C900CB10CC40CD70CF20CA1
S31500005F68F40CB70C370C4A0B84093707C405AC0583
S31500005F78EC05EF05FD05F605B0059405CC0502060A
S31500005F88FF05CD059B058D058C0582057B059505C9
S31500005F98F105A9060808370A390CD40C760C3B0C0F
S31500005FA82C0C200C5D0CA20C840C360C0A0C110C63
S31500005FB83F0C6C0C880C9B0C910C630C250CCD0BC0
S31500005FC80A0B5A090F0796058405D705EC05FB0544
S31500005FD8EA05A40584058E059305A605CA05D60512
S31500005FE8BC0595057C0575057F05C3057506DE07A1
S31500005FF8150A0D0C8A0C0E0CCA0BD20BF20B510C9F
S31500006008A20C8F0C500C1C0C000C130C420C670CC9
S315000060187B0C830C7B0C3E0CB60BCA0A1809DF06F0
S3150000602876056C05BC05BA0593054A05FE041205F6
S31500006038590572056A055B053805210536055105BA
S3150000604846053F0594056906EA071A0AF00B520C3D
S31500006058DE0BC20BFE0B460C980CB50C830C550CCC
S31500006068450C360C3C0C5E0C780C710C610C580C0B
S315000060782C0CB10BBA0AF608CE068B057C05A005D2
S315000060888D057F054705E904E0042F0576059A0581
S315000060989C057F0561055205490540055005A4057F
S315000060A86506D807F609B00B110CBA0BA10BBB0B8A
S315000060B8E40B3B0C6D0C290CB50B6C0B5D0B7A0BCA
S315000060C8AA0BDD0BFC0BF60BD50B990B350B5B0AF4
S315000060D88F084D060C051D0570058B059B056F057C
S315000060E80C05EB042D058905BA05A80576054405B2
S315000060F81605FE0403051D0567051F069B07C5094A
S315000061086F0BAA0B410B330B570B750BB80BE80B30
S31500006118B90B5E0B330B550B9A0BD00BFF0B220CEE
S31500006128250C0D0CD90B710B8B0AC20899066C0548
S315000061387705C005DC05DD059205250514055A0514
S315000061489A059E057505530540051E05FD04F704C9
S3150000615819057F054906BB07BE093B0B670B0C0BE8
S315000061680E0B450B850BE60B200CFA0BAF0B880BB9
S315000061789C0BCA0BE20BEB0BFC0B0A0CFF0BC70BB9
S31500006188540B5F0A91088E069405A005B60593057B
S3150000619862050805A8049904C90403052505180518
S315000061A8FB04E904D304B304AB04E40465053A0626
S315000061B8BF07D809490B590BF50AF80A340B840BA3
S315000061C8E80B090CC60B6C0B410B5C0B940BAE0B66
S315000061D8B60BC60BBF0B850B2F0BBD0ABE09CF0727
S315000061E8C105E2040D053A0534052505E3049604C0
S315000061F89C04D304E804C804950486049D049E04FC
S3150000620887049204DA044E051A06BB07ED09570BF4
S31500006218620B0A0BFF0A060B1F0B640B810B540B50
S31500006228280B360B750BAA0BA90B980B9C0B990B15
S31500006238670B0A0B820A75098E079805D2040C05A6
S315000062484205500569055405140500051905280574
S315000062580D05DA04C704D604CB04A504A504EC048A
S315000062686B054D06FA07140A4C0B280BAE0A910A61
S31500006278970AAD0AE20AF70AD60AB50ABA0AEA0A74
S31500006288260B450B550B700B7E0B560BFA0A790A33
S31500006298710983078D05DA04220546052E053205A0
S315000062A81C05DC04CC04F9041C050005C404AD0473
S315000062B8B3049B0475048204C20427050B06E2078F
S315000062C81D0A500B260BC40ACF0AF30A220B740BBD
S315000062D88E0B520B180B130B390B650B760B790BC0
S315000062E8920BA80B860B2A0B960A5E094A075B05D2
S315000062F8BC040405210509050105CB0477047504CA
S31500006308B804D804B90494049D04BE04BC04A404C7
S31500006318A804CE0420050906E807140A310B0B0B5E
S31500006328C10AD20AE20A040B5A0B7A0B460B1C0B5B
S31500006338190B200B200B0D0BFA0A080B1B0B080B6D
S31500006348D50A5D0A22090F072C058A04CC04F7042E
S31500006358F704FD04C5046B046B04A704C404C6044F
S31500006368CF04E604FB04F404DD04D504EE0450056A
S315000063784F061708120A140BF00AA70AA80AA70A52
S31500006388CB0A250B410B0F0BEF0AF30AFB0AFC0A93
S31500006398F00AE50AE50AE10ACE0A9F0A120ACA08BD
S315000063A8D10606056404AB04E404E104D5048F04AD
S315000063B836043804650468045B045D046B048104D0
S315000063C88F0490049504BC043A0553062908240A48
S315000063D81A0BE10A930AA60AB60AD40A210B3C0B41
S315000063E80E0BEA0AEC0A020B120B0E0B050BF90A46
S315000063F8DE0AC30A910AF00989087106A7043E0451
S31500006408B804E904C0049E0458040C0416044F0496
S31500006418640456043E0434044404580460046404C2
S3150000642889040D053D063908450A1B0BB50A530AAA
S31500006438650A820AB80A100B230BEC0AC00ABE0AC0
S31500006448DD0A000B0E0B0C0BF60ACA0AA20A6C0A26
S31500006458C7094A08160659041C04AC04DD04C1041D
S31500006468A1044A0400041C04590474046B044B0474
S31500006478370438043C04500470049A04130544068F
S315000064884D08530A090B990A430A4A0A570A960AF3
S31500006498EB0AE80AAC0A880A850AAA0AE70A0C0B74
S315000064A80A0BE70AB10A830A560AC50950082306E1
S315000064B877043904B004DD04D704C30474043A0429
S315000064C84A044A041B04DF03A7039303A203BC037D
S315000064D8EA03190439049404AE05AD07A509540A5C
S315000064E8F909B609AC09A609EC094E0A690A770A38
S315000064F8A60AC80ADC0AF10AFB0AEB0AC10A8E0ACE
S31500006508700A520AC6094E082C069E046904D0046D
S3150000651800050705F304A804690454042D04FA03C6
S31500006528E503E303EB03020425044E046C04880424
S31500006538E90408060908EC09800A2D0A000AFF0979
S31500006548F8092D0A7A0A9E0AC30AEC0AF40AF50A19
S31500006558FF0AFD0AEC0ACB0AA80A970A7B0AF4097D
S315000065688B087A06F804B704F104EE04D804BB04D1
S3150000657878043E041504E103BE03C103D303E6030E
S31500006588F20302041F04350445049D04C905DF0708
S31500006598BB09430A0A0AFE09050A060A4B0AAB0A98
S315000065A8EB0A1C0B2E0B100BF00AE20ADB0AD90ABF
S315000065B8D30AC70ABF0A990AF10967085406EA0402
S315000065C8C2040B050A05E804B5045E041F04FA03B1
S315000065D8DF03F603250437043E044104410453044B
S315000065E869047E04EE043E065B08160A7A0A390A2E
S315000065F8360A4D0A6B0ABF0A180B470B560B350BA2
S31500006608FA0AE10AEC0AFC0A080B0B0B060BF40A59
S31500006618B70AEE0946083906F304D80416050E0526
S31500006628ED04C10478043B041704110449048704E3
S315000066388C0478046904640477048B04A6042D0585
S315000066489406AB08490AA90A7A0A750A730A7A0AE5
S31500006658CC0A330B6A0B5E0B110BC90AC90AEA0A84
S31500006668F90AF80AF50AF10AE20AAA0AEC0944083C
S315000066782A06E204D10415051B050805D604730489
S315000066881904F303120462048E047D0460045204A0
S315000066985704630461047304FF0474069708310AF7
S315000066A8900A6C0A6A0A640A730ADF0A610B940B79
S315000066B8730B240BE90AEF0A0B0B100B0E0B180BC6
S315000066C8280B210BD90A030A54083F06FA04EE04DC
S315000066D8310539052D05F50485042104F7031F0442
S315000066E88104B804A704840470046904640461047A
S315000066F888041B057A068108120A710A4D0A460A99
S315000067083D0A500AC70A510B7F0B4C0BF10AB50A12
S31500006718C10AE90AFA0A040B170B240B130BC80A59
